{
  "contractName": "FundraiserFactory",
  "abi": [
    {
      "anonymous": false,
      "inputs": [
        {
          "indexed": true,
          "internalType": "contract Fundraiser",
          "name": "fundraiser",
          "type": "address"
        },
        {
          "indexed": true,
          "internalType": "address",
          "name": "owner",
          "type": "address"
        }
      ],
      "name": "FundraiserCreated",
      "type": "event"
    },
    {
      "inputs": [],
      "name": "fundraisersCount",
      "outputs": [
        {
          "internalType": "uint256",
          "name": "",
          "type": "uint256"
        }
      ],
      "stateMutability": "view",
      "type": "function",
      "constant": true
    },
    {
      "inputs": [
        {
          "internalType": "string",
          "name": "name",
          "type": "string"
        },
        {
          "internalType": "string",
          "name": "url",
          "type": "string"
        },
        {
          "internalType": "string",
          "name": "imageURL",
          "type": "string"
        },
        {
          "internalType": "string",
          "name": "description",
          "type": "string"
        },
        {
          "internalType": "address payable",
          "name": "beneficiary",
          "type": "address"
        }
      ],
      "name": "createFundraiser",
      "outputs": [],
      "stateMutability": "nonpayable",
      "type": "function"
    },
    {
      "inputs": [
        {
          "internalType": "uint256",
          "name": "limit",
          "type": "uint256"
        },
        {
          "internalType": "uint256",
          "name": "offset",
          "type": "uint256"
        }
      ],
      "name": "fundraisers",
      "outputs": [
        {
          "internalType": "contract Fundraiser[]",
          "name": "coll",
          "type": "address[]"
        }
      ],
      "stateMutability": "view",
      "type": "function",
      "constant": true
    }
  ],
  "bytecode": "0x6080604052601460005534801561001557600080fd5b506128a7806100256000396000f3fe60806040523480156200001157600080fd5b5060043610620000465760003560e01c806311d752ad146200004b578063704914f8146200006b5780639d3b435514620000a1575b600080fd5b620000696004803603810190620000639190620005e4565b620000c3565b005b62000089600480360381019062000083919062000723565b62000240565b60405162000098919062000892565b60405180910390f35b620000ab620003ee565b604051620000ba9190620008c7565b60405180910390f35b6000858585858533604051620000d990620003fb565b620000ea96959493929190620009ad565b604051809103906000f08015801562000107573d6000803e3d6000fd5b5090506001819080600181540180825580915050600190039060005260206000200160009091909190916101000a81548173ffffffffffffffffffffffffffffffffffffffff021916908373ffffffffffffffffffffffffffffffffffffffff1602179055508073ffffffffffffffffffffffffffffffffffffffff16638da5cb5b6040518163ffffffff1660e01b8152600401602060405180830381865afa158015620001b9573d6000803e3d6000fd5b505050506040513d601f19601f82011682018060405250810190620001df919062000a67565b73ffffffffffffffffffffffffffffffffffffffff168173ffffffffffffffffffffffffffffffffffffffff167fa2398daac0c8053a1e3c0280916c2ec6bc884f0959c27e639a4db829b7eabfb160405160405180910390a3505050505050565b60606200024c620003ee565b82111562000291576040517f08c379a0000000000000000000000000000000000000000000000000000000008152600401620002889062000ae9565b60405180910390fd5b6000826200029e620003ee565b620002aa919062000b3a565b9050838110620002bb5783620002bd565b805b90506000548110620002d257600054620002d4565b805b90508067ffffffffffffffff811115620002f357620002f262000438565b5b604051908082528060200260200182016040528015620003225781602001602082028036833780820191505090505b50915060005b81811015620003e6576001818562000341919062000b75565b8154811062000355576200035462000bd2565b5b9060005260206000200160009054906101000a900473ffffffffffffffffffffffffffffffffffffffff1683828151811062000396576200039562000bd2565b5b602002602001019073ffffffffffffffffffffffffffffffffffffffff16908173ffffffffffffffffffffffffffffffffffffffff16815250508080620003dd9062000c01565b91505062000328565b505092915050565b6000600180549050905090565b611c228062000c5083390190565b6000604051905090565b600080fd5b600080fd5b600080fd5b600080fd5b6000601f19601f8301169050919050565b7f4e487b7100000000000000000000000000000000000000000000000000000000600052604160045260246000fd5b620004728262000427565b810181811067ffffffffffffffff8211171562000494576200049362000438565b5b80604052505050565b6000620004a962000409565b9050620004b7828262000467565b919050565b600067ffffffffffffffff821115620004da57620004d962000438565b5b620004e58262000427565b9050602081019050919050565b82818337600083830152505050565b6000620005186200051284620004bc565b6200049d565b90508281526020810184848401111562000537576200053662000422565b5b62000544848285620004f2565b509392505050565b600082601f8301126200056457620005636200041d565b5b81356200057684826020860162000501565b91505092915050565b600073ffffffffffffffffffffffffffffffffffffffff82169050919050565b6000620005ac826200057f565b9050919050565b620005be816200059f565b8114620005ca57600080fd5b50565b600081359050620005de81620005b3565b92915050565b600080600080600060a0868803121562000603576200060262000413565b5b600086013567ffffffffffffffff81111562000624576200062362000418565b5b62000632888289016200054c565b955050602086013567ffffffffffffffff81111562000656576200065562000418565b5b62000664888289016200054c565b945050604086013567ffffffffffffffff81111562000688576200068762000418565b5b62000696888289016200054c565b935050606086013567ffffffffffffffff811115620006ba57620006b962000418565b5b620006c8888289016200054c565b9250506080620006db88828901620005cd565b9150509295509295909350565b6000819050919050565b620006fd81620006e8565b81146200070957600080fd5b50565b6000813590506200071d81620006f2565b92915050565b600080604083850312156200073d576200073c62000413565b5b60006200074d858286016200070c565b925050602062000760858286016200070c565b9150509250929050565b600081519050919050565b600082825260208201905092915050565b6000819050602082019050919050565b6000819050919050565b6000620007c1620007bb620007b5846200057f565b62000796565b6200057f565b9050919050565b6000620007d582620007a0565b9050919050565b6000620007e982620007c8565b9050919050565b620007fb81620007dc565b82525050565b60006200080f8383620007f0565b60208301905092915050565b6000602082019050919050565b600062000835826200076a565b62000841818562000775565b93506200084e8362000786565b8060005b838110156200088557815162000869888262000801565b975062000876836200081b565b92505060018101905062000852565b5085935050505092915050565b60006020820190508181036000830152620008ae818462000828565b905092915050565b620008c181620006e8565b82525050565b6000602082019050620008de6000830184620008b6565b92915050565b600081519050919050565b600082825260208201905092915050565b60005b838110156200092057808201518184015260208101905062000903565b8381111562000930576000848401525b50505050565b60006200094382620008e4565b6200094f8185620008ef565b93506200096181856020860162000900565b6200096c8162000427565b840191505092915050565b62000982816200059f565b82525050565b600062000995826200057f565b9050919050565b620009a78162000988565b82525050565b600060c0820190508181036000830152620009c9818962000936565b90508181036020830152620009df818862000936565b90508181036040830152620009f5818762000936565b9050818103606083015262000a0b818662000936565b905062000a1c608083018562000977565b62000a2b60a08301846200099c565b979650505050505050565b62000a418162000988565b811462000a4d57600080fd5b50565b60008151905062000a618162000a36565b92915050565b60006020828403121562000a805762000a7f62000413565b5b600062000a908482850162000a50565b91505092915050565b7f6f6666736574206f7574206f6620626f756e6473000000000000000000000000600082015250565b600062000ad1601483620008ef565b915062000ade8262000a99565b602082019050919050565b6000602082019050818103600083015262000b048162000ac2565b9050919050565b7f4e487b7100000000000000000000000000000000000000000000000000000000600052601160045260246000fd5b600062000b4782620006e8565b915062000b5483620006e8565b92508282101562000b6a5762000b6962000b0b565b5b828203905092915050565b600062000b8282620006e8565b915062000b8f83620006e8565b9250827fffffffffffffffffffffffffffffffffffffffffffffffffffffffffffffffff0382111562000bc75762000bc662000b0b565b5b828201905092915050565b7f4e487b7100000000000000000000000000000000000000000000000000000000600052603260045260246000fd5b600062000c0e82620006e8565b91507fffffffffffffffffffffffffffffffffffffffffffffffffffffffffffffffff82141562000c445762000c4362000b0b565b5b60018201905091905056fe60806040523480156200001157600080fd5b5060405162001c2238038062001c2283398181016040528101906200003791906200061b565b620000576200004b6200011960201b60201c565b6200012160201b60201c565b85600490805190602001906200006f92919062000324565b5084600590805190602001906200008892919062000324565b508360069080519060200190620000a192919062000324565b508260079080519060200190620000ba92919062000324565b5081600860006101000a81548173ffffffffffffffffffffffffffffffffffffffff021916908373ffffffffffffffffffffffffffffffffffffffff1602179055506200010d81620001e560201b60201c565b505050505050620008b3565b600033905090565b60008060009054906101000a900473ffffffffffffffffffffffffffffffffffffffff169050816000806101000a81548173ffffffffffffffffffffffffffffffffffffffff021916908373ffffffffffffffffffffffffffffffffffffffff1602179055508173ffffffffffffffffffffffffffffffffffffffff168173ffffffffffffffffffffffffffffffffffffffff167f8be0079c531659141344cd1fd0a4f28419497f9722a3daafe3b4186f6b6457e060405160405180910390a35050565b620001f56200011960201b60201c565b73ffffffffffffffffffffffffffffffffffffffff166200021b620002fb60201b60201c565b73ffffffffffffffffffffffffffffffffffffffff161462000274576040517f08c379a00000000000000000000000000000000000000000000000000000000081526004016200026b9062000794565b60405180910390fd5b600073ffffffffffffffffffffffffffffffffffffffff168173ffffffffffffffffffffffffffffffffffffffff161415620002e7576040517f08c379a0000000000000000000000000000000000000000000000000000000008152600401620002de906200082c565b60405180910390fd5b620002f8816200012160201b60201c565b50565b60008060009054906101000a900473ffffffffffffffffffffffffffffffffffffffff16905090565b82805462000332906200087d565b90600052602060002090601f016020900481019282620003565760008555620003a2565b82601f106200037157805160ff1916838001178555620003a2565b82800160010185558215620003a2579182015b82811115620003a157825182559160200191906001019062000384565b5b509050620003b19190620003b5565b5090565b5b80821115620003d0576000816000905550600101620003b6565b5090565b6000604051905090565b600080fd5b600080fd5b600080fd5b600080fd5b6000601f19601f8301169050919050565b7f4e487b7100000000000000000000000000000000000000000000000000000000600052604160045260246000fd5b6200043d82620003f2565b810181811067ffffffffffffffff821117156200045f576200045e62000403565b5b80604052505050565b600062000474620003d4565b905062000482828262000432565b919050565b600067ffffffffffffffff821115620004a557620004a462000403565b5b620004b082620003f2565b9050602081019050919050565b60005b83811015620004dd578082015181840152602081019050620004c0565b83811115620004ed576000848401525b50505050565b60006200050a620005048462000487565b62000468565b905082815260208101848484011115620005295762000528620003ed565b5b62000536848285620004bd565b509392505050565b600082601f830112620005565762000555620003e8565b5b815162000568848260208601620004f3565b91505092915050565b600073ffffffffffffffffffffffffffffffffffffffff82169050919050565b60006200059e8262000571565b9050919050565b620005b08162000591565b8114620005bc57600080fd5b50565b600081519050620005d081620005a5565b92915050565b6000620005e38262000571565b9050919050565b620005f581620005d6565b81146200060157600080fd5b50565b6000815190506200061581620005ea565b92915050565b60008060008060008060c087890312156200063b576200063a620003de565b5b600087015167ffffffffffffffff8111156200065c576200065b620003e3565b5b6200066a89828a016200053e565b965050602087015167ffffffffffffffff8111156200068e576200068d620003e3565b5b6200069c89828a016200053e565b955050604087015167ffffffffffffffff811115620006c057620006bf620003e3565b5b620006ce89828a016200053e565b945050606087015167ffffffffffffffff811115620006f257620006f1620003e3565b5b6200070089828a016200053e565b93505060806200071389828a01620005bf565b92505060a06200072689828a0162000604565b9150509295509295509295565b600082825260208201905092915050565b7f4f776e61626c653a2063616c6c6572206973206e6f7420746865206f776e6572600082015250565b60006200077c60208362000733565b9150620007898262000744565b602082019050919050565b60006020820190508181036000830152620007af816200076d565b9050919050565b7f4f776e61626c653a206e6577206f776e657220697320746865207a65726f206160008201527f6464726573730000000000000000000000000000000000000000000000000000602082015250565b60006200081460268362000733565b91506200082182620007b6565b604082019050919050565b60006020820190508181036000830152620008478162000805565b9050919050565b7f4e487b7100000000000000000000000000000000000000000000000000000000600052602260045260246000fd5b600060028204905060018216806200089657607f821691505b60208210811415620008ad57620008ac6200084e565b5b50919050565b61135f80620008c36000396000f3fe6080604052600436106100f75760003560e01c80635600f04f1161008a578063b90497e011610059578063b90497e014610308578063de2ed89314610333578063ed88c68e1461035e578063f2fde38b14610368576100f8565b80635600f04f14610270578063715018a61461029b5780637284e416146102b25780638da5cb5b146102dd576100f8565b80631f522595116100c65780631f522595146101d8578063375b74c31461020357806338af3eed1461022e5780633ccfd60b14610259576100f8565b80630180b97c1461012d57806306fdde03146101585780631a57f7b4146101835780631c31f710146101af576100f8565b5b61010d3460015461039190919063ffffffff16565b6001819055506002600081548092919061012690610da4565b9190505550005b34801561013957600080fd5b506101426103a7565b60405161014f9190610dfc565b60405180910390f35b34801561016457600080fd5b5061016d6103f1565b60405161017a9190610eb0565b60405180910390f35b34801561018f57600080fd5b5061019861047f565b6040516101a6929190610f90565b60405180910390f35b3480156101bb57600080fd5b506101d660048036038101906101d1919061102a565b6105f4565b005b3480156101e457600080fd5b506101ed6106b4565b6040516101fa9190610dfc565b60405180910390f35b34801561020f57600080fd5b506102186106ba565b6040516102259190611078565b60405180910390f35b34801561023a57600080fd5b506102436106e0565b60405161025091906110a2565b60405180910390f35b34801561026557600080fd5b5061026e610706565b005b34801561027c57600080fd5b5061028561082a565b6040516102929190610eb0565b60405180910390f35b3480156102a757600080fd5b506102b06108b8565b005b3480156102be57600080fd5b506102c7610940565b6040516102d49190610eb0565b60405180910390f35b3480156102e957600080fd5b506102f26109ce565b6040516102ff9190611078565b60405180910390f35b34801561031457600080fd5b5061031d6109f7565b60405161032a9190610eb0565b60405180910390f35b34801561033f57600080fd5b50610348610a85565b6040516103559190610dfc565b60405180910390f35b610366610a8b565b005b34801561037457600080fd5b5061038f600480360381019061038a91906110e9565b610ba7565b005b6000818361039f9190611116565b905092915050565b6000600360003373ffffffffffffffffffffffffffffffffffffffff1673ffffffffffffffffffffffffffffffffffffffff16815260200190815260200160002080549050905090565b600480546103fe9061119b565b80601f016020809104026020016040519081016040528092919081815260200182805461042a9061119b565b80156104775780601f1061044c57610100808354040283529160200191610477565b820191906000526020600020905b81548152906001019060200180831161045a57829003601f168201915b505050505081565b606080600061048c6103a7565b90508067ffffffffffffffff8111156104a8576104a76111cd565b5b6040519080825280602002602001820160405280156104d65781602001602082028036833780820191505090505b5092508067ffffffffffffffff8111156104f3576104f26111cd565b5b6040519080825280602002602001820160405280156105215781602001602082028036833780820191505090505b50915060005b818110156105ee576000600360003373ffffffffffffffffffffffffffffffffffffffff1673ffffffffffffffffffffffffffffffffffffffff1681526020019081526020016000208281548110610582576105816111fc565b5b9060005260206000209060020201905080600001548583815181106105aa576105a96111fc565b5b60200260200101818152505080600101548483815181106105ce576105cd6111fc565b5b6020026020010181815250505080806105e690610da4565b915050610527565b50509091565b6105fc610c9f565b73ffffffffffffffffffffffffffffffffffffffff1661061a6109ce565b73ffffffffffffffffffffffffffffffffffffffff1614610670576040517f08c379a000000000000000000000000000000000000000000000000000000000815260040161066790611277565b60405180910390fd5b80600860006101000a81548173ffffffffffffffffffffffffffffffffffffffff021916908373ffffffffffffffffffffffffffffffffffffffff16021790555050565b60025481565b600960009054906101000a900473ffffffffffffffffffffffffffffffffffffffff1681565b600860009054906101000a900473ffffffffffffffffffffffffffffffffffffffff1681565b61070e610c9f565b73ffffffffffffffffffffffffffffffffffffffff1661072c6109ce565b73ffffffffffffffffffffffffffffffffffffffff1614610782576040517f08c379a000000000000000000000000000000000000000000000000000000000815260040161077990611277565b60405180910390fd5b6000479050600860009054906101000a900473ffffffffffffffffffffffffffffffffffffffff1673ffffffffffffffffffffffffffffffffffffffff166108fc829081150290604051600060405180830381858888f193505050501580156107ef573d6000803e3d6000fd5b507f5b6b431d4476a211bb7d41c20d1aab9ae2321deee0d20be3d9fc9b1093fa6e3d8160405161081f9190610dfc565b60405180910390a150565b600580546108379061119b565b80601f01602080910402602001604051908101604052809291908181526020018280546108639061119b565b80156108b05780601f10610885576101008083540402835291602001916108b0565b820191906000526020600020905b81548152906001019060200180831161089357829003601f168201915b505050505081565b6108c0610c9f565b73ffffffffffffffffffffffffffffffffffffffff166108de6109ce565b73ffffffffffffffffffffffffffffffffffffffff1614610934576040517f08c379a000000000000000000000000000000000000000000000000000000000815260040161092b90611277565b60405180910390fd5b61093e6000610ca7565b565b6007805461094d9061119b565b80601f01602080910402602001604051908101604052809291908181526020018280546109799061119b565b80156109c65780601f1061099b576101008083540402835291602001916109c6565b820191906000526020600020905b8154815290600101906020018083116109a957829003601f168201915b505050505081565b60008060009054906101000a900473ffffffffffffffffffffffffffffffffffffffff16905090565b60068054610a049061119b565b80601f0160208091040260200160405190810160405280929190818152602001828054610a309061119b565b8015610a7d5780601f10610a5257610100808354040283529160200191610a7d565b820191906000526020600020905b815481529060010190602001808311610a6057829003601f168201915b505050505081565b60015481565b60006040518060400160405280348152602001428152509050600360003373ffffffffffffffffffffffffffffffffffffffff1673ffffffffffffffffffffffffffffffffffffffff16815260200190815260200160002081908060018154018082558091505060019003906000526020600020906002020160009091909190915060008201518160000155602082015181600101555050610b383460015461039190919063ffffffff16565b60018190555060026000815480929190610b5190610da4565b91905055503373ffffffffffffffffffffffffffffffffffffffff167f264f630d9efa0d07053a31163641d9fcc0adafc9d9e76f1c37c2ce3a558d2c5234604051610b9c9190610dfc565b60405180910390a250565b610baf610c9f565b73ffffffffffffffffffffffffffffffffffffffff16610bcd6109ce565b73ffffffffffffffffffffffffffffffffffffffff1614610c23576040517f08c379a0000000000000000000000000000000000000000000000000000000008152600401610c1a90611277565b60405180910390fd5b600073ffffffffffffffffffffffffffffffffffffffff168173ffffffffffffffffffffffffffffffffffffffff161415610c93576040517f08c379a0000000000000000000000000000000000000000000000000000000008152600401610c8a90611309565b60405180910390fd5b610c9c81610ca7565b50565b600033905090565b60008060009054906101000a900473ffffffffffffffffffffffffffffffffffffffff169050816000806101000a81548173ffffffffffffffffffffffffffffffffffffffff021916908373ffffffffffffffffffffffffffffffffffffffff1602179055508173ffffffffffffffffffffffffffffffffffffffff168173ffffffffffffffffffffffffffffffffffffffff167f8be0079c531659141344cd1fd0a4f28419497f9722a3daafe3b4186f6b6457e060405160405180910390a35050565b7f4e487b7100000000000000000000000000000000000000000000000000000000600052601160045260246000fd5b6000819050919050565b6000610daf82610d9a565b91507fffffffffffffffffffffffffffffffffffffffffffffffffffffffffffffffff821415610de257610de1610d6b565b5b600182019050919050565b610df681610d9a565b82525050565b6000602082019050610e116000830184610ded565b92915050565b600081519050919050565b600082825260208201905092915050565b60005b83811015610e51578082015181840152602081019050610e36565b83811115610e60576000848401525b50505050565b6000601f19601f8301169050919050565b6000610e8282610e17565b610e8c8185610e22565b9350610e9c818560208601610e33565b610ea581610e66565b840191505092915050565b60006020820190508181036000830152610eca8184610e77565b905092915050565b600081519050919050565b600082825260208201905092915050565b6000819050602082019050919050565b610f0781610d9a565b82525050565b6000610f198383610efe565b60208301905092915050565b6000602082019050919050565b6000610f3d82610ed2565b610f478185610edd565b9350610f5283610eee565b8060005b83811015610f83578151610f6a8882610f0d565b9750610f7583610f25565b925050600181019050610f56565b5085935050505092915050565b60006040820190508181036000830152610faa8185610f32565b90508181036020830152610fbe8184610f32565b90509392505050565b600080fd5b600073ffffffffffffffffffffffffffffffffffffffff82169050919050565b6000610ff782610fcc565b9050919050565b61100781610fec565b811461101257600080fd5b50565b60008135905061102481610ffe565b92915050565b6000602082840312156110405761103f610fc7565b5b600061104e84828501611015565b91505092915050565b600061106282610fcc565b9050919050565b61107281611057565b82525050565b600060208201905061108d6000830184611069565b92915050565b61109c81610fec565b82525050565b60006020820190506110b76000830184611093565b92915050565b6110c681611057565b81146110d157600080fd5b50565b6000813590506110e3816110bd565b92915050565b6000602082840312156110ff576110fe610fc7565b5b600061110d848285016110d4565b91505092915050565b600061112182610d9a565b915061112c83610d9a565b9250827fffffffffffffffffffffffffffffffffffffffffffffffffffffffffffffffff0382111561116157611160610d6b565b5b828201905092915050565b7f4e487b7100000000000000000000000000000000000000000000000000000000600052602260045260246000fd5b600060028204905060018216806111b357607f821691505b602082108114156111c7576111c661116c565b5b50919050565b7f4e487b7100000000000000000000000000000000000000000000000000000000600052604160045260246000fd5b7f4e487b7100000000000000000000000000000000000000000000000000000000600052603260045260246000fd5b7f4f776e61626c653a2063616c6c6572206973206e6f7420746865206f776e6572600082015250565b6000611261602083610e22565b915061126c8261122b565b602082019050919050565b6000602082019050818103600083015261129081611254565b9050919050565b7f4f776e61626c653a206e6577206f776e657220697320746865207a65726f206160008201527f6464726573730000000000000000000000000000000000000000000000000000602082015250565b60006112f3602683610e22565b91506112fe82611297565b604082019050919050565b60006020820190508181036000830152611322816112e6565b905091905056fea2646970667358221220d173518d0eb1bfbfd7d80aaec4e901192f86197ef677eb5db7c74b6c2ed467ec64736f6c634300080a0033a2646970667358221220f8634fa587c479e1a7b291c079876d695e75020c48cedc986b27e184614e281864736f6c634300080a0033",
  "immutableReferences": {},
  "source": "// SPDX-License-Identifier: MIT\r\npragma solidity >= 0.4.0 <0.9.0;\r\n\r\nimport \"./Fundraiser.sol\";\r\n\r\ncontract FundraiserFactory {\r\n  uint256 maxLimit = 20;\r\n  Fundraiser[] private _fundraisers;\r\n\r\n  event FundraiserCreated(Fundraiser indexed fundraiser, address indexed owner);\r\n\r\n  function fundraisersCount() public view returns(uint256) {\r\n    return _fundraisers.length;\r\n  }\r\n\r\n  function createFundraiser(\r\n    string memory name,\r\n    string memory url,\r\n    string memory imageURL,\r\n    string memory description,\r\n    address payable beneficiary\r\n  ) public \r\n  {\r\n    Fundraiser fundraiser = new Fundraiser(\r\n      name, url, imageURL, description, beneficiary, msg.sender\r\n    );\r\n    _fundraisers.push(fundraiser);\r\n    emit FundraiserCreated(fundraiser, fundraiser.owner());\r\n  }\r\n\r\n  function fundraisers(uint256 limit, uint256 offset) \r\n    public view returns(Fundraiser[] memory coll)\r\n  {\r\n    require(offset <= fundraisersCount(), \"offset out of bounds\");\r\n\r\n    uint256 size = fundraisersCount() - offset;\r\n    size = size < limit ? size : limit;\r\n    size = size < maxLimit ? size : maxLimit;\r\n    coll = new Fundraiser[](size);\r\n\r\n    for(uint256 i = 0; i < size; i++) {\r\n      coll[i] = _fundraisers[offset + i];\r\n    }\r\n\r\n    return coll;  \r\n  }\r\n}\r\n",
  "sourcePath": "/mnt/c/Users/yuuu1/develop/blockchain/fundraiser/contracts/FundraiserFactory.sol",
  "compiler": {
    "name": "solc",
    "version": "0.8.10+commit.fc410830.Emscripten.clang"
  },
  "schemaVersion": "3.4.4",
  "updatedAt": "2022-01-26T08:00:07.565Z",
  "networkType": "ethereum",
  "devdoc": {
    "kind": "dev",
    "methods": {},
    "version": 1
  },
  "userdoc": {
    "kind": "user",
    "methods": {},
    "version": 1
  }
}